:020000020000FC
:1020000007EB0093E50000E10093E6000FE000938A
:10201000E70000E80093E40008950F921F920F93E9
:102020001F932F933F93AF93BF93EF93FF93125060
:10203000003209F40CE20A52000F000FE2E8F0E26D
:102040000024E00FF01DACEEBB27212F1695A10F49
:1020500034E000EF20FD0295059020FD02941C90D5
:10206000102210281C9215963A95B1F7FF91EF9126
:10207000BF91AF913F912F911F910F911F900F90A2
:102080000895080A0A0E00080A0200000000000075
:102090000A0001050A0008000004090505050801F9
:1020A000010001010E0101010B0100050B000104FB
:1020B0000B0101040F010101010001050F010105E0
:1020C0000B010002000400000000080000080000EE
:1020D0000A010002000400000000000000000105E9
:1020E0000F000109090301040401010901030104AE
:1020F0000E0101040E0001040D0100050F0000088F
:102100000002000105010804060800040401080794
:102110000500000705080105050101050E00010580
:10212000050901050E080102000901080002000569
:102130000501080404040005050C0802000C08024F
:102140000002090000050104040100020008010169
:1021500001010000000000000001090F0F0F0F93A4
:102160001F932F933F934F9303B11CB1012B4AE070
:102170003FEF3A95F1F74A95D9F71CB123B1122BED
:10218000011791F7202E4F913F912F911F910F91A1
:1021900008950F931F9303E512E00E940D1004E5CC
:1021A00013E00E940D1001E414E00E940D1002E5FE
:1021B00015E00E940D1004E516E00E940D101F911D
:1021C0000F9108950F931F9300E212E00E940D10EB
:1021D00000E213E00E940D1000E214E00E940D10D6
:1021E00000E215E00E940D1000E216E00E940D10C2
:1021F00000E217E00E940D101F910F9108950F93B8
:102200001F930CE412E00E940D100FE413E00E94F3
:102210000D1003E514E00E940D1005E415E00E9486
:102220000D1002E516E00E940D100E9454110E944C
:1022300054110E94E2100E9454110E9454110CE4A7
:1022400012E00E940D100FE413E00E940D1003E550
:1022500014E00E940D1005E415E00E940D1002E547
:1022600016E00E940D100E9454110E9454110E9409
:10227000E2100E9454110E9454110CE412E00E94DA
:102280000D100FE413E00E940D1003E514E00E940E
:102290000D1005E415E00E940D1002E516E00E9405
:1022A0000D101F910F9108950F931F931FEF0FEFC4
:1022B0000A95F1F71A95D9F71F910F9108950F9389
:1022C0001F934F935F93CF93402F502F5695569562
:1022D00056955695440F440F440F440F4695469526
:1022E000469546954A3024F0C7E34C0F0C947A117A
:1022F000C0E34C0F5A3024F0C7E35C0F0C948211FA
:10230000C0E35C0F052F14E00E940D10042F15E0B0
:102310000E940D10CF915F914F911F910F910895E1
:040000000C9400015B
:040014000C9428011F
:100200000FEF0DBF04E00EBF0E94001000E00DBF15
:1002100004E00EBFF89408E00093B60001E00093FC
:10022000700005E00093B00000270DBB78941DB16D
:10023000137F0EB10C601DB90EB900E000937F0072
:1002400014B11F7205B1006D14B905B90C943601D3
:100250000F930FB70F9300910001039500930001D6
:1002600001E0002E0F910FBF0F9118950E94E21030
:100270000E94C9100E94AF1024FE0C9446010E94F7
:10028000E210022D0E945F110C943A01002415E047
:10029000112E0FEF302E0AE2402E55240E94E2105C
:1002A0000E940D100C9454010E94AF1001E0001642
:1002B00011F00C945401002402E0101671F007E0D4
:1002C0001016B1F00C9482010E94E210042D112D41
:1002D0000E940D1022240C94540122FE0C949901CA
:1002E00023FC0C94990101E0502E13940C946401AA
:1002F00023FE0C94990122FC0C94990155241A9424
:100300000C946401012D053021F4052D003009F411
:10031000339422FE0C94990123FE0C94990100E081
:10032000501609F41A9401E0501609F413940C9431
:1003300064010E94E2100E94FF100E94AF1024FC92
:100340000C949D010E94E210032D0E945F110E94F7
:1003500054110E9454110E9454110E9454110E9481
:1003600054110E94AF1024FC0C94B1010C9436017E
:00000001FF
